{
  "contractName": "CorgiToken",
  "abi": [
    {
      "inputs": [
        {
          "internalType": "string",
          "name": "name",
          "type": "string"
        },
        {
          "internalType": "string",
          "name": "symbol",
          "type": "string"
        }
      ],
      "stateMutability": "nonpayable",
      "type": "constructor"
    },
    {
      "anonymous": false,
      "inputs": [
        {
          "indexed": true,
          "internalType": "address",
          "name": "owner",
          "type": "address"
        },
        {
          "indexed": true,
          "internalType": "address",
          "name": "approved",
          "type": "address"
        },
        {
          "indexed": true,
          "internalType": "uint256",
          "name": "tokenId",
          "type": "uint256"
        }
      ],
      "name": "Approval",
      "type": "event"
    },
    {
      "anonymous": false,
      "inputs": [
        {
          "indexed": true,
          "internalType": "address",
          "name": "owner",
          "type": "address"
        },
        {
          "indexed": true,
          "internalType": "address",
          "name": "operator",
          "type": "address"
        },
        {
          "indexed": false,
          "internalType": "bool",
          "name": "approved",
          "type": "bool"
        }
      ],
      "name": "ApprovalForAll",
      "type": "event"
    },
    {
      "anonymous": false,
      "inputs": [
        {
          "indexed": true,
          "internalType": "address",
          "name": "previousOwner",
          "type": "address"
        },
        {
          "indexed": true,
          "internalType": "address",
          "name": "newOwner",
          "type": "address"
        }
      ],
      "name": "OwnershipTransferred",
      "type": "event"
    },
    {
      "anonymous": false,
      "inputs": [
        {
          "indexed": true,
          "internalType": "address",
          "name": "from",
          "type": "address"
        },
        {
          "indexed": true,
          "internalType": "address",
          "name": "to",
          "type": "address"
        },
        {
          "indexed": true,
          "internalType": "uint256",
          "name": "tokenId",
          "type": "uint256"
        }
      ],
      "name": "Transfer",
      "type": "event"
    },
    {
      "anonymous": false,
      "inputs": [
        {
          "indexed": true,
          "internalType": "address",
          "name": "_from",
          "type": "address"
        }
      ],
      "name": "Transfered",
      "type": "event"
    },
    {
      "inputs": [
        {
          "internalType": "address",
          "name": "to",
          "type": "address"
        },
        {
          "internalType": "uint256",
          "name": "tokenId",
          "type": "uint256"
        }
      ],
      "name": "approve",
      "outputs": [],
      "stateMutability": "nonpayable",
      "type": "function"
    },
    {
      "inputs": [
        {
          "internalType": "address",
          "name": "owner",
          "type": "address"
        }
      ],
      "name": "balanceOf",
      "outputs": [
        {
          "internalType": "uint256",
          "name": "",
          "type": "uint256"
        }
      ],
      "stateMutability": "view",
      "type": "function",
      "constant": true
    },
    {
      "inputs": [
        {
          "internalType": "uint256",
          "name": "",
          "type": "uint256"
        }
      ],
      "name": "corgis",
      "outputs": [
        {
          "internalType": "uint256",
          "name": "id",
          "type": "uint256"
        },
        {
          "internalType": "uint256",
          "name": "dna",
          "type": "uint256"
        },
        {
          "internalType": "string",
          "name": "name",
          "type": "string"
        },
        {
          "internalType": "uint8",
          "name": "level",
          "type": "uint8"
        },
        {
          "internalType": "uint8",
          "name": "rarity",
          "type": "uint8"
        },
        {
          "internalType": "uint8",
          "name": "damage",
          "type": "uint8"
        },
        {
          "internalType": "uint8",
          "name": "health",
          "type": "uint8"
        },
        {
          "internalType": "uint256",
          "name": "lastMeal",
          "type": "uint256"
        },
        {
          "internalType": "bool",
          "name": "onMarket",
          "type": "bool"
        },
        {
          "internalType": "uint256",
          "name": "price",
          "type": "uint256"
        }
      ],
      "stateMutability": "view",
      "type": "function",
      "constant": true
    },
    {
      "inputs": [
        {
          "internalType": "uint256",
          "name": "tokenId",
          "type": "uint256"
        }
      ],
      "name": "getApproved",
      "outputs": [
        {
          "internalType": "address",
          "name": "",
          "type": "address"
        }
      ],
      "stateMutability": "view",
      "type": "function",
      "constant": true
    },
    {
      "inputs": [
        {
          "internalType": "address",
          "name": "owner",
          "type": "address"
        },
        {
          "internalType": "address",
          "name": "operator",
          "type": "address"
        }
      ],
      "name": "isApprovedForAll",
      "outputs": [
        {
          "internalType": "bool",
          "name": "",
          "type": "bool"
        }
      ],
      "stateMutability": "view",
      "type": "function",
      "constant": true
    },
    {
      "inputs": [],
      "name": "name",
      "outputs": [
        {
          "internalType": "string",
          "name": "",
          "type": "string"
        }
      ],
      "stateMutability": "view",
      "type": "function",
      "constant": true
    },
    {
      "inputs": [],
      "name": "owner",
      "outputs": [
        {
          "internalType": "address",
          "name": "",
          "type": "address"
        }
      ],
      "stateMutability": "view",
      "type": "function",
      "constant": true
    },
    {
      "inputs": [
        {
          "internalType": "uint256",
          "name": "tokenId",
          "type": "uint256"
        }
      ],
      "name": "ownerOf",
      "outputs": [
        {
          "internalType": "address",
          "name": "",
          "type": "address"
        }
      ],
      "stateMutability": "view",
      "type": "function",
      "constant": true
    },
    {
      "inputs": [],
      "name": "renounceOwnership",
      "outputs": [],
      "stateMutability": "nonpayable",
      "type": "function"
    },
    {
      "inputs": [
        {
          "internalType": "address",
          "name": "from",
          "type": "address"
        },
        {
          "internalType": "address",
          "name": "to",
          "type": "address"
        },
        {
          "internalType": "uint256",
          "name": "tokenId",
          "type": "uint256"
        }
      ],
      "name": "safeTransferFrom",
      "outputs": [],
      "stateMutability": "nonpayable",
      "type": "function"
    },
    {
      "inputs": [
        {
          "internalType": "address",
          "name": "from",
          "type": "address"
        },
        {
          "internalType": "address",
          "name": "to",
          "type": "address"
        },
        {
          "internalType": "uint256",
          "name": "tokenId",
          "type": "uint256"
        },
        {
          "internalType": "bytes",
          "name": "_data",
          "type": "bytes"
        }
      ],
      "name": "safeTransferFrom",
      "outputs": [],
      "stateMutability": "nonpayable",
      "type": "function"
    },
    {
      "inputs": [
        {
          "internalType": "address",
          "name": "operator",
          "type": "address"
        },
        {
          "internalType": "bool",
          "name": "approved",
          "type": "bool"
        }
      ],
      "name": "setApprovalForAll",
      "outputs": [],
      "stateMutability": "nonpayable",
      "type": "function"
    },
    {
      "inputs": [
        {
          "internalType": "bytes4",
          "name": "interfaceId",
          "type": "bytes4"
        }
      ],
      "name": "supportsInterface",
      "outputs": [
        {
          "internalType": "bool",
          "name": "",
          "type": "bool"
        }
      ],
      "stateMutability": "view",
      "type": "function",
      "constant": true
    },
    {
      "inputs": [],
      "name": "symbol",
      "outputs": [
        {
          "internalType": "string",
          "name": "",
          "type": "string"
        }
      ],
      "stateMutability": "view",
      "type": "function",
      "constant": true
    },
    {
      "inputs": [
        {
          "internalType": "uint256",
          "name": "tokenId",
          "type": "uint256"
        }
      ],
      "name": "tokenURI",
      "outputs": [
        {
          "internalType": "string",
          "name": "",
          "type": "string"
        }
      ],
      "stateMutability": "view",
      "type": "function",
      "constant": true
    },
    {
      "inputs": [
        {
          "internalType": "address",
          "name": "from",
          "type": "address"
        },
        {
          "internalType": "address",
          "name": "to",
          "type": "address"
        },
        {
          "internalType": "uint256",
          "name": "tokenId",
          "type": "uint256"
        }
      ],
      "name": "transferFrom",
      "outputs": [],
      "stateMutability": "nonpayable",
      "type": "function"
    },
    {
      "inputs": [
        {
          "internalType": "address",
          "name": "newOwner",
          "type": "address"
        }
      ],
      "name": "transferOwnership",
      "outputs": [],
      "stateMutability": "nonpayable",
      "type": "function"
    },
    {
      "inputs": [
        {
          "internalType": "string",
          "name": "_name",
          "type": "string"
        }
      ],
      "name": "createRandomCorgi",
      "outputs": [],
      "stateMutability": "payable",
      "type": "function",
      "payable": true
    },
    {
      "inputs": [],
      "name": "getCorgis",
      "outputs": [
        {
          "components": [
            {
              "internalType": "uint256",
              "name": "id",
              "type": "uint256"
            },
            {
              "internalType": "uint256",
              "name": "dna",
              "type": "uint256"
            },
            {
              "internalType": "string",
              "name": "name",
              "type": "string"
            },
            {
              "internalType": "uint8",
              "name": "level",
              "type": "uint8"
            },
            {
              "internalType": "uint8",
              "name": "rarity",
              "type": "uint8"
            },
            {
              "internalType": "uint8",
              "name": "damage",
              "type": "uint8"
            },
            {
              "internalType": "uint8",
              "name": "health",
              "type": "uint8"
            },
            {
              "internalType": "uint256",
              "name": "lastMeal",
              "type": "uint256"
            },
            {
              "internalType": "bool",
              "name": "onMarket",
              "type": "bool"
            },
            {
              "internalType": "uint256",
              "name": "price",
              "type": "uint256"
            }
          ],
          "internalType": "struct CorgiToken.Corgi[]",
          "name": "",
          "type": "tuple[]"
        }
      ],
      "stateMutability": "view",
      "type": "function",
      "constant": true
    },
    {
      "inputs": [
        {
          "internalType": "address",
          "name": "_owner",
          "type": "address"
        }
      ],
      "name": "getOwnerCorgis",
      "outputs": [
        {
          "components": [
            {
              "internalType": "uint256",
              "name": "id",
              "type": "uint256"
            },
            {
              "internalType": "uint256",
              "name": "dna",
              "type": "uint256"
            },
            {
              "internalType": "string",
              "name": "name",
              "type": "string"
            },
            {
              "internalType": "uint8",
              "name": "level",
              "type": "uint8"
            },
            {
              "internalType": "uint8",
              "name": "rarity",
              "type": "uint8"
            },
            {
              "internalType": "uint8",
              "name": "damage",
              "type": "uint8"
            },
            {
              "internalType": "uint8",
              "name": "health",
              "type": "uint8"
            },
            {
              "internalType": "uint256",
              "name": "lastMeal",
              "type": "uint256"
            },
            {
              "internalType": "bool",
              "name": "onMarket",
              "type": "bool"
            },
            {
              "internalType": "uint256",
              "name": "price",
              "type": "uint256"
            }
          ],
          "internalType": "struct CorgiToken.Corgi[]",
          "name": "",
          "type": "tuple[]"
        }
      ],
      "stateMutability": "view",
      "type": "function",
      "constant": true
    },
    {
      "inputs": [
        {
          "internalType": "uint256",
          "name": "_id",
          "type": "uint256"
        }
      ],
      "name": "levelUp",
      "outputs": [],
      "stateMutability": "payable",
      "type": "function",
      "payable": true
    },
    {
      "inputs": [
        {
          "internalType": "uint256",
          "name": "_id",
          "type": "uint256"
        },
        {
          "internalType": "string",
          "name": "_name",
          "type": "string"
        }
      ],
      "name": "setName",
      "outputs": [],
      "stateMutability": "payable",
      "type": "function",
      "payable": true
    },
    {
      "inputs": [
        {
          "internalType": "uint256",
          "name": "_id",
          "type": "uint256"
        }
      ],
      "name": "feed",
      "outputs": [],
      "stateMutability": "payable",
      "type": "function",
      "payable": true
    },
    {
      "inputs": [
        {
          "internalType": "uint256",
          "name": "_id",
          "type": "uint256"
        },
        {
          "internalType": "address",
          "name": "_to",
          "type": "address"
        }
      ],
      "name": "transferTo",
      "outputs": [],
      "stateMutability": "nonpayable",
      "type": "function"
    },
    {
      "inputs": [
        {
          "internalType": "uint256",
          "name": "_id",
          "type": "uint256"
        },
        {
          "internalType": "uint256",
          "name": "_price",
          "type": "uint256"
        }
      ],
      "name": "sell",
      "outputs": [],
      "stateMutability": "nonpayable",
      "type": "function"
    },
    {
      "inputs": [
        {
          "internalType": "uint256",
          "name": "_id",
          "type": "uint256"
        }
      ],
      "name": "buy",
      "outputs": [],
      "stateMutability": "payable",
      "type": "function",
      "payable": true
    },
    {
      "inputs": [
        {
          "internalType": "uint256",
          "name": "_id",
          "type": "uint256"
        }
      ],
      "name": "cancelOnMarket",
      "outputs": [],
      "stateMutability": "nonpayable",
      "type": "function"
    },
    {
      "inputs": [
        {
          "internalType": "address",
          "name": "_owner",
          "type": "address"
        },
        {
          "internalType": "int256",
          "name": "_rank",
          "type": "int256"
        }
      ],
      "name": "setRank",
      "outputs": [],
      "stateMutability": "payable",
      "type": "function",
      "payable": true
    },
    {
      "inputs": [
        {
          "internalType": "address",
          "name": "_owner",
          "type": "address"
        }
      ],
      "name": "getRank",
      "outputs": [
        {
          "internalType": "int256",
          "name": "",
          "type": "int256"
        }
      ],
      "stateMutability": "view",
      "type": "function",
      "constant": true
    }
  ],
  "bytecode": "0x6080604052662386f26fc1000060095566038d7ea4c68000600a556611c37937e08000600b5566038d7ea4c68000600c553480156200003d57600080fd5b5060405162002b6d38038062002b6d83398101604081905262000060916200027d565b815182908290620000799060009060208501906200010a565b5080516200008f9060019060208401906200010a565b505050620000ac620000a6620000b460201b60201c565b620000b8565b505062000324565b3390565b600680546001600160a01b038381166001600160a01b0319831681179093556040519116919082907f8be0079c531659141344cd1fd0a4f28419497f9722a3daafe3b4186f6b6457e090600090a35050565b8280546200011890620002e7565b90600052602060002090601f0160209004810192826200013c576000855562000187565b82601f106200015757805160ff191683800117855562000187565b8280016001018555821562000187579182015b82811115620001875782518255916020019190600101906200016a565b506200019592915062000199565b5090565b5b808211156200019557600081556001016200019a565b634e487b7160e01b600052604160045260246000fd5b600082601f830112620001d857600080fd5b81516001600160401b0380821115620001f557620001f5620001b0565b604051601f8301601f19908116603f01168101908282118183101715620002205762000220620001b0565b816040528381526020925086838588010111156200023d57600080fd5b600091505b8382101562000261578582018301518183018401529082019062000242565b83821115620002735760008385830101525b9695505050505050565b600080604083850312156200029157600080fd5b82516001600160401b0380821115620002a957600080fd5b620002b786838701620001c6565b93506020850151915080821115620002ce57600080fd5b50620002dd85828601620001c6565b9150509250929050565b600181811c90821680620002fc57607f821691505b602082108114156200031e57634e487b7160e01b600052602260045260246000fd5b50919050565b61283980620003346000396000f3fe6080604052600436106101c25760003560e01c8063715018a6116100f7578063d4822fbf11610095578063e985e9c511610064578063e985e9c514610508578063f2fde38b14610551578063f59dfdfb14610571578063fe55932a1461058457600080fd5b8063d4822fbf146104a0578063d79875eb146104c0578063d96a094a146104e0578063e1569bcb146104f357600080fd5b8063a0301ce8116100d1578063a0301ce81461040a578063a22cb46514610440578063b88d4fde14610460578063c87b56dd1461048057600080fd5b8063715018a6146103c25780638da5cb5b146103d757806395d89b41146103f557600080fd5b806323b872dd1161016457806342842e0e1161013e57806342842e0e1461031e578063548c0ef41461033e5780636352211e1461038257806370a08231146103a257600080fd5b806323b872dd146102cb5780633966327f146102eb57806339fe2aea146102fe57600080fd5b8063095ea7b3116101a0578063095ea7b3146102565780630b112ba3146102785780630ce90ec2146102a557806322a8dc82146102b857600080fd5b806301ffc9a7146101c757806306fdde03146101fc578063081812fc1461021e575b600080fd5b3480156101d357600080fd5b506101e76101e23660046120b9565b610597565b60405190151581526020015b60405180910390f35b34801561020857600080fd5b506102116105e9565b6040516101f3919061212e565b34801561022a57600080fd5b5061023e610239366004612141565b61067b565b6040516001600160a01b0390911681526020016101f3565b34801561026257600080fd5b50610276610271366004612176565b610715565b005b34801561028457600080fd5b506102986102933660046121a0565b61082b565b6040516101f391906121bb565b6102766102b3366004612141565b610a88565b6102766102c6366004612176565b610b0e565b3480156102d757600080fd5b506102766102e636600461229e565b610bc1565b6102766102f9366004612386565b610bcc565b34801561030a57600080fd5b50610276610319366004612141565b610be7565b34801561032a57600080fd5b5061027661033936600461229e565b610c23565b34801561034a57600080fd5b506103746103593660046121a0565b6001600160a01b031660009081526007602052604090205490565b6040519081526020016101f3565b34801561038e57600080fd5b5061023e61039d366004612141565b610c3e565b3480156103ae57600080fd5b506103746103bd3660046121a0565b610cb5565b3480156103ce57600080fd5b50610276610d3c565b3480156103e357600080fd5b506006546001600160a01b031661023e565b34801561040157600080fd5b50610211610da2565b34801561041657600080fd5b5061042a610425366004612141565b610db1565b6040516101f39a999897969594939291906123bb565b34801561044c57600080fd5b5061027661045b36600461241d565b610ead565b34801561046c57600080fd5b5061027661047b366004612459565b610eb8565b34801561048c57600080fd5b5061021161049b366004612141565b610f3a565b3480156104ac57600080fd5b506102766104bb3660046124d5565b611022565b3480156104cc57600080fd5b506102766104db366004612501565b61108f565b6102766104ee366004612141565b6110cf565b3480156104ff57600080fd5b5061029861116d565b34801561051457600080fd5b506101e7610523366004612523565b6001600160a01b03918216600090815260056020908152604080832093909416825291909152205460ff1690565b34801561055d57600080fd5b5061027661056c3660046121a0565b6112d1565b61027661057f366004612141565b611399565b61027661059236600461254d565b6113f7565b60006001600160e01b031982166380ac58cd60e01b14806105c857506001600160e01b03198216635b5e139f60e01b145b806105e357506301ffc9a760e01b6001600160e01b03198316145b92915050565b6060600080546105f890612594565b80601f016020809104026020016040519081016040528092919081815260200182805461062490612594565b80156106715780601f1061064657610100808354040283529160200191610671565b820191906000526020600020905b81548152906001019060200180831161065457829003601f168201915b5050505050905090565b6000818152600260205260408120546001600160a01b03166106f95760405162461bcd60e51b815260206004820152602c60248201527f4552433732313a20617070726f76656420717565727920666f72206e6f6e657860448201526b34b9ba32b73a103a37b5b2b760a11b60648201526084015b60405180910390fd5b506000908152600460205260409020546001600160a01b031690565b600061072082610c3e565b9050806001600160a01b0316836001600160a01b0316141561078e5760405162461bcd60e51b815260206004820152602160248201527f4552433732313a20617070726f76616c20746f2063757272656e74206f776e656044820152603960f91b60648201526084016106f0565b336001600160a01b03821614806107aa57506107aa8133610523565b61081c5760405162461bcd60e51b815260206004820152603860248201527f4552433732313a20617070726f76652063616c6c6572206973206e6f74206f7760448201527f6e6572206e6f7220617070726f76656420666f7220616c6c000000000000000060648201526084016106f0565b6108268383611460565b505050565b6060600061083883610cb5565b67ffffffffffffffff811115610850576108506122da565b6040519080825280602002602001820160405280156108e557816020015b6108d2604051806101400160405280600081526020016000815260200160608152602001600060ff168152602001600060ff168152602001600060ff168152602001600060ff16815260200160008152602001600015158152602001600081525090565b81526020019060019003908161086e5790505b5090506000805b600d54811015610a7f57846001600160a01b031661090982610c3e565b6001600160a01b03161415610a6d57600d818154811061092b5761092b6125cf565b906000526020600020906007020160405180610140016040529081600082015481526020016001820154815260200160028201805461096990612594565b80601f016020809104026020016040519081016040528092919081815260200182805461099590612594565b80156109e25780601f106109b7576101008083540402835291602001916109e2565b820191906000526020600020905b8154815290600101906020018083116109c557829003601f168201915b5050509183525050600382015460ff808216602084015261010082048116604084015262010000820481166060840152630100000090910481166080830152600483015460a0830152600583015416151560c082015260069091015460e0909101528383610a4f816125fb565b945081518110610a6157610a616125cf565b60200260200101819052505b80610a77816125fb565b9150506108ec565b50909392505050565b33610a9282610c3e565b6001600160a01b031614610aa557600080fd5b600a54341015610ab457600080fd5b6000600d8281548110610ac957610ac96125cf565b6000918252602082206003600790920201908101805491935060ff90911691610af183612616565b91906101000a81548160ff021916908360ff160217905550505050565b6001600160a01b03821660009081526007602052604081208054839290610b36908490612636565b90915550506001600160a01b0382166000908152600760205260408120541215610b74576001600160a01b0382166000908152600760205260408120555b6000811315610bbd576001600160a01b0382166108fc610b95346002612677565b6040518115909202916000818181858888f19350505050158015610826573d6000803e3d6000fd5b5050565b6108268383836114ce565b600954341015610bdb57600080fd5b610be48161166a565b50565b6000600d8281548110610bfc57610bfc6125cf565b600091825260208220600660079092020190810191909155600501805460ff191690555050565b61082683838360405180602001604052806000815250610eb8565b6000818152600260205260408120546001600160a01b0316806105e35760405162461bcd60e51b815260206004820152602960248201527f4552433732313a206f776e657220717565727920666f72206e6f6e657869737460448201526832b73a103a37b5b2b760b91b60648201526084016106f0565b60006001600160a01b038216610d205760405162461bcd60e51b815260206004820152602a60248201527f4552433732313a2062616c616e636520717565727920666f7220746865207a65604482015269726f206164647265737360b01b60648201526084016106f0565b506001600160a01b031660009081526003602052604090205490565b6006546001600160a01b03163314610d965760405162461bcd60e51b815260206004820181905260248201527f4f776e61626c653a2063616c6c6572206973206e6f7420746865206f776e657260448201526064016106f0565b610da0600061184a565b565b6060600180546105f890612594565b600d8181548110610dc157600080fd5b9060005260206000209060070201600091509050806000015490806001015490806002018054610df090612594565b80601f0160208091040260200160405190810160405280929190818152602001828054610e1c90612594565b8015610e695780601f10610e3e57610100808354040283529160200191610e69565b820191906000526020600020905b815481529060010190602001808311610e4c57829003601f168201915b505050600384015460048501546005860154600690960154949560ff808416966101008504821696506201000085048216955063010000009094048116939116908a565b610bbd33838361189c565b610ec2338361196b565b610f285760405162461bcd60e51b815260206004820152603160248201527f4552433732313a207472616e736665722063616c6c6572206973206e6f74206f6044820152701ddb995c881b9bdc88185c1c1c9bdd9959607a1b60648201526084016106f0565b610f3484848484611a62565b50505050565b6000818152600260205260409020546060906001600160a01b0316610fb95760405162461bcd60e51b815260206004820152602f60248201527f4552433732314d657461646174613a2055524920717565727920666f72206e6f60448201526e3732bc34b9ba32b73a103a37b5b2b760891b60648201526084016106f0565b6000610fd060408051602081019091526000815290565b90506000815111610ff0576040518060200160405280600081525061101b565b80610ffa84611a95565b60405160200161100b929190612696565b6040516020818303038152906040525b9392505050565b3361102c83610c3e565b6001600160a01b03161461103f57600080fd5b336001600160a01b038216141561105557600080fd5b611060338284610bc1565b60405133907f3706ed9d95c44467579fecedaf11b9ca8c967bb242bbb31b470cf911835a3b7790600090a25050565b6000600d83815481106110a4576110a46125cf565b6000918252602090912060066007909202019081019290925550600501805460ff1916600117905550565b6000600d82815481106110e4576110e46125cf565b90600052602060002090600702019050806006015434101561110557600080fd5b61110e82610c3e565b6001600160a01b03166108fc349081150290604051600060405180830381858888f19350505050158015611146573d6000803e3d6000fd5b506000600682015560058101805460ff19169055610bbd61116683610c3e565b3384610bc1565b6060600d805480602002602001604051908101604052809291908181526020016000905b828210156112c857838290600052602060002090600702016040518061014001604052908160008201548152602001600182015481526020016002820180546111d990612594565b80601f016020809104026020016040519081016040528092919081815260200182805461120590612594565b80156112525780601f1061122757610100808354040283529160200191611252565b820191906000526020600020905b81548152906001019060200180831161123557829003601f168201915b5050509183525050600382015460ff80821660208085019190915261010083048216604085015262010000830482166060850152630100000090920481166080840152600484015460a0840152600584015416151560c083015260069092015460e0909101529082526001929092019101611191565b50505050905090565b6006546001600160a01b0316331461132b5760405162461bcd60e51b815260206004820181905260248201527f4f776e61626c653a2063616c6c6572206973206e6f7420746865206f776e657260448201526064016106f0565b6001600160a01b0381166113905760405162461bcd60e51b815260206004820152602660248201527f4f776e61626c653a206e6577206f776e657220697320746865207a65726f206160448201526564647265737360d01b60648201526084016106f0565b610be48161184a565b336113a382610c3e565b6001600160a01b0316146113b657600080fd5b600c543410156113c557600080fd5b6000600d82815481106113da576113da6125cf565b906000526020600020906007020190504281600401819055505050565b3361140183610c3e565b6001600160a01b03161461141457600080fd5b600b5434101561142357600080fd5b6000600d8381548110611438576114386125cf565b9060005260206000209060070201905081816002019080519060200190610f3492919061200a565b600081815260046020526040902080546001600160a01b0319166001600160a01b038416908117909155819061149582610c3e565b6001600160a01b03167f8c5be1e5ebec7d5bd14f71427d1e84f3dd0314c0f7b2291e5b200ac8c7c3b92560405160405180910390a45050565b826001600160a01b03166114e182610c3e565b6001600160a01b0316146115455760405162461bcd60e51b815260206004820152602560248201527f4552433732313a207472616e736665722066726f6d20696e636f72726563742060448201526437bbb732b960d91b60648201526084016106f0565b6001600160a01b0382166115a75760405162461bcd60e51b8152602060048201526024808201527f4552433732313a207472616e7366657220746f20746865207a65726f206164646044820152637265737360e01b60648201526084016106f0565b6115b2600082611460565b6001600160a01b03831660009081526003602052604081208054600192906115db9084906126c5565b90915550506001600160a01b03821660009081526003602052604081208054600192906116099084906126dc565b909155505060008181526002602052604080822080546001600160a01b0319166001600160a01b0386811691821790925591518493918716917fddf252ad1be2c89b69c2b068fc378daa952ba7f163c4a11628f55a4df523b3ef91a4505050565b6000611674611b93565b9050600061168182611cde565b9050600061169160066064611d11565b905060006116a160076064611d11565b60408051610140810182526008548152602080820188815292820189815260016060840181905260ff898116608086015288811660a0860152861660c08501524260e0850152600061010085018190526101208501819052600d805492830181559052835160079091027fd7b6990105719101dabeb77144f2a3385c8033acd3af97e9423a695e81ad1eb5810191825594517fd7b6990105719101dabeb77144f2a3385c8033acd3af97e9423a695e81ad1eb686015590518051959650929485949193611794937fd7b6990105719101dabeb77144f2a3385c8033acd3af97e9423a695e81ad1eb790930192019061200a565b506060820151600382018054608085015160a086015160c087015160ff95861661ffff199094169390931761010092861683021763ffff00001916620100009186169190910263ff0000001916176301000000949092169390930217905560e0830151600483015582015160058201805460ff19169115159190911790556101209091015160069091015560085461182d903390611d7d565b6008805490600061183d836125fb565b9190505550505050505050565b600680546001600160a01b038381166001600160a01b0319831681179093556040519116919082907f8be0079c531659141344cd1fd0a4f28419497f9722a3daafe3b4186f6b6457e090600090a35050565b816001600160a01b0316836001600160a01b031614156118fe5760405162461bcd60e51b815260206004820152601960248201527f4552433732313a20617070726f766520746f2063616c6c65720000000000000060448201526064016106f0565b6001600160a01b03838116600081815260056020908152604080832094871680845294825291829020805460ff191686151590811790915591519182527f17307eab39ab6107e8899845ad3d59bd9653f200f220920489ca2b5937696c31910160405180910390a3505050565b6000818152600260205260408120546001600160a01b03166119e45760405162461bcd60e51b815260206004820152602c60248201527f4552433732313a206f70657261746f7220717565727920666f72206e6f6e657860448201526b34b9ba32b73a103a37b5b2b760a11b60648201526084016106f0565b60006119ef83610c3e565b9050806001600160a01b0316846001600160a01b03161480611a3657506001600160a01b0380821660009081526005602090815260408083209388168352929052205460ff165b80611a5a5750836001600160a01b0316611a4f8461067b565b6001600160a01b0316145b949350505050565b611a6d8484846114ce565b611a7984848484611d97565b610f345760405162461bcd60e51b81526004016106f0906126f4565b606081611ab95750506040805180820190915260018152600360fc1b602082015290565b8160005b8115611ae35780611acd816125fb565b9150611adc9050600a8361275c565b9150611abd565b60008167ffffffffffffffff811115611afe57611afe6122da565b6040519080825280601f01601f191660200182016040528015611b28576020820181803683370190505b5090505b8415611a5a57611b3d6001836126c5565b9150611b4a600a86612770565b611b559060306126dc565b60f81b818381518110611b6a57611b6a6125cf565b60200101906001600160f81b031916908160001a905350611b8c600a8661275c565b9450611b2c565b60008080611bad611ba3826125fb565b9250826005611d11565b90506000611bc7611bbd846125fb565b9350836005611d11565b90506000611be1611bd7856125fb565b9450846004611d11565b90506000611bfb611bf1866125fb565b9550856003611d11565b90506000611c15611c0b876125fb565b9650866003611d11565b9050600081611c2584600a612677565b611c30866064612677565b611c3c886103e8612677565b611c488a612710612677565b611c5291906126dc565b611c5c91906126dc565b611c6691906126dc565b611c7091906126dc565b905060005b600d54811015611cd25781600d8281548110611c9357611c936125cf565b9060005260206000209060070201600101541415611cc057611cb3611b93565b9850505050505050505090565b80611cca816125fb565b915050611c75565b50979650505050505050565b6000805b82156105e357611cf3600a84612770565b611cfd9082612784565b9050611d0a600a8461275c565b9250611ce2565b6000804233604051602001611d4292919091825260601b6bffffffffffffffffffffffff1916602082015260340190565b60408051601f19818403018152919052805160209091012090508284611d6960648461275c565b611d739190612677565b611a5a9190612770565b610bbd828260405180602001604052806000815250611e95565b60006001600160a01b0384163b15611e8a57604051630a85bd0160e11b81526001600160a01b0385169063150b7a0290611ddb9033908990889088906004016127a9565b6020604051808303816000875af1925050508015611e16575060408051601f3d908101601f19168201909252611e13918101906127e6565b60015b611e70573d808015611e44576040519150601f19603f3d011682016040523d82523d6000602084013e611e49565b606091505b508051611e685760405162461bcd60e51b81526004016106f0906126f4565b805181602001fd5b6001600160e01b031916630a85bd0160e11b149050611a5a565b506001949350505050565b611e9f8383611ec8565b611eac6000848484611d97565b6108265760405162461bcd60e51b81526004016106f0906126f4565b6001600160a01b038216611f1e5760405162461bcd60e51b815260206004820181905260248201527f4552433732313a206d696e7420746f20746865207a65726f206164647265737360448201526064016106f0565b6000818152600260205260409020546001600160a01b031615611f835760405162461bcd60e51b815260206004820152601c60248201527f4552433732313a20746f6b656e20616c7265616479206d696e7465640000000060448201526064016106f0565b6001600160a01b0382166000908152600360205260408120805460019290611fac9084906126dc565b909155505060008181526002602052604080822080546001600160a01b0319166001600160a01b03861690811790915590518392907fddf252ad1be2c89b69c2b068fc378daa952ba7f163c4a11628f55a4df523b3ef908290a45050565b82805461201690612594565b90600052602060002090601f016020900481019282612038576000855561207e565b82601f1061205157805160ff191683800117855561207e565b8280016001018555821561207e579182015b8281111561207e578251825591602001919060010190612063565b5061208a92915061208e565b5090565b5b8082111561208a576000815560010161208f565b6001600160e01b031981168114610be457600080fd5b6000602082840312156120cb57600080fd5b813561101b816120a3565b60005b838110156120f15781810151838201526020016120d9565b83811115610f345750506000910152565b6000815180845261211a8160208601602086016120d6565b601f01601f19169290920160200192915050565b60208152600061101b6020830184612102565b60006020828403121561215357600080fd5b5035919050565b80356001600160a01b038116811461217157600080fd5b919050565b6000806040838503121561218957600080fd5b6121928361215a565b946020939093013593505050565b6000602082840312156121b257600080fd5b61101b8261215a565b60006020808301818452808551808352604092508286019150828160051b87010184880160005b8381101561229057603f19898403018552815161014081518552888201518986015287820151818987015261221982870182612102565b9150506060808301516122308288018260ff169052565b505060808281015160ff9081169187019190915260a08084015182169087015260c0808401519091169086015260e080830151908601526101008083015115159086015261012091820151919094015293860193908601906001016121e2565b509098975050505050505050565b6000806000606084860312156122b357600080fd5b6122bc8461215a565b92506122ca6020850161215a565b9150604084013590509250925092565b634e487b7160e01b600052604160045260246000fd5b600067ffffffffffffffff8084111561230b5761230b6122da565b604051601f8501601f19908116603f01168101908282118183101715612333576123336122da565b8160405280935085815286868601111561234c57600080fd5b858560208301376000602087830101525050509392505050565b600082601f83011261237757600080fd5b61101b838335602085016122f0565b60006020828403121561239857600080fd5b813567ffffffffffffffff8111156123af57600080fd5b611a5a84828501612366565b60006101408c83528b60208401528060408401526123db8184018c612102565b60ff9a8b166060850152988a166080840152505094871660a08601529290951660c084015260e083015292151561010082015261012001919091529392505050565b6000806040838503121561243057600080fd5b6124398361215a565b91506020830135801515811461244e57600080fd5b809150509250929050565b6000806000806080858703121561246f57600080fd5b6124788561215a565b93506124866020860161215a565b925060408501359150606085013567ffffffffffffffff8111156124a957600080fd5b8501601f810187136124ba57600080fd5b6124c9878235602084016122f0565b91505092959194509250565b600080604083850312156124e857600080fd5b823591506124f86020840161215a565b90509250929050565b6000806040838503121561251457600080fd5b50508035926020909101359150565b6000806040838503121561253657600080fd5b61253f8361215a565b91506124f86020840161215a565b6000806040838503121561256057600080fd5b82359150602083013567ffffffffffffffff81111561257e57600080fd5b61258a85828601612366565b9150509250929050565b600181811c908216806125a857607f821691505b602082108114156125c957634e487b7160e01b600052602260045260246000fd5b50919050565b634e487b7160e01b600052603260045260246000fd5b634e487b7160e01b600052601160045260246000fd5b600060001982141561260f5761260f6125e5565b5060010190565b600060ff821660ff81141561262d5761262d6125e5565b60010192915050565b600080821280156001600160ff1b0384900385131615612658576126586125e5565b600160ff1b8390038412811615612671576126716125e5565b50500190565b6000816000190483118215151615612691576126916125e5565b500290565b600083516126a88184602088016120d6565b8351908301906126bc8183602088016120d6565b01949350505050565b6000828210156126d7576126d76125e5565b500390565b600082198211156126ef576126ef6125e5565b500190565b60208082526032908201527f4552433732313a207472616e7366657220746f206e6f6e20455243373231526560408201527131b2b4bb32b91034b6b83632b6b2b73a32b960711b606082015260800190565b634e487b7160e01b600052601260045260246000fd5b60008261276b5761276b612746565b500490565b60008261277f5761277f612746565b500690565b600060ff821660ff84168060ff038211156127a1576127a16125e5565b019392505050565b6001600160a01b03858116825284166020820152604081018390526080606082018190526000906127dc90830184612102565b9695505050505050565b6000602082840312156127f857600080fd5b815161101b816120a356fea264697066735822122010e90838f0e3fabaa54d3b748dce1c87599fbeddee863b66baf4312aa526bd1964736f6c634300080b0033",
  "immutableReferences": {},
  "source": "// SPDX-License-Identifier: MIT\r\npragma solidity ^0.8.0;\r\n\r\nimport \"../node_modules/@openzeppelin/contracts/token/ERC721/ERC721.sol\";\r\nimport \"../node_modules/@openzeppelin/contracts/access/Ownable.sol\";\r\n\r\ncontract CorgiToken is ERC721, Ownable {\r\n\r\n    constructor(string memory name, string memory symbol) ERC721(name, symbol) {}\r\n\r\n    event Transfered(address indexed _from);\r\n\r\n    mapping(address => int256) private ranks; \r\n\r\n    uint256 tokenId;\r\n    uint256 createFee = 0.01 ether;\r\n    uint256 lvlUpFee = 0.001 ether;\r\n    uint256 changeNameFee = 0.005 ether;\r\n    uint256 feedFee = 0.001 ether;\r\n\r\n    struct Corgi {\r\n        uint256 id;\r\n        uint256 dna;\r\n        string name;\r\n        uint8 level;\r\n        uint8 rarity;\r\n        uint8 damage;\r\n        uint8 health;\r\n        uint256 lastMeal;\r\n        bool onMarket;\r\n        uint256 price;\r\n    }\r\n\r\n    Corgi[] public corgis;\r\n\r\n    // Helpers\r\n    function _generateRandomNumber(uint256 _step, uint256 _limit) internal view returns(uint256) {\r\n        uint256 randomNumber = uint256(keccak256(abi.encodePacked(block.timestamp, msg.sender)));\r\n        return (randomNumber / 100 * _step) % _limit;\r\n    }\r\n\r\n    function _generateRandomDNA() internal view returns(uint256) {\r\n        uint256 step = 0;\r\n\r\n        uint256 earing = _generateRandomNumber(++step, 5);\r\n        uint256 background = _generateRandomNumber(++step, 5);\r\n        uint256 elemental = _generateRandomNumber(++step, 4);\r\n        uint256 weapon = _generateRandomNumber(++step, 3);\r\n        uint256 armor = _generateRandomNumber(++step, 3);\r\n\r\n        uint256 dna = earing * 10000 + \r\n                      background * 1000 + \r\n                      elemental * 100 + \r\n                      weapon * 10 + \r\n                      armor;\r\n\r\n        for(uint256 i = 0; i < corgis.length; i++) {\r\n            if (corgis[i].dna == dna) {\r\n                return _generateRandomDNA();\r\n            }\r\n        }\r\n        return dna;\r\n    }\r\n\r\n    function _sum(uint256 _number) internal pure returns(uint8){\r\n        uint8 sum = 0;\r\n        while (_number != 0) {\r\n            sum += uint8(_number % 10);\r\n            _number /= 10;\r\n        }\r\n        return sum;\r\n    }\r\n\r\n    // Creation\r\n    function _createCorgi(string memory _name) internal {\r\n        uint256 dna = _generateRandomDNA();\r\n        uint8 rariry = _sum(dna);\r\n        uint8 damage = uint8(_generateRandomNumber(6, 100));\r\n        uint8 health = uint8(_generateRandomNumber(7, 100));\r\n        Corgi memory corgi = Corgi(tokenId, dna, _name, 1, rariry, damage, health, block.timestamp, false, 0);\r\n        corgis.push(corgi);\r\n        _safeMint(msg.sender, tokenId);\r\n        tokenId++;\r\n    }\r\n\r\n    function createRandomCorgi(string memory _name) public payable {\r\n        require(msg.value >= createFee);\r\n        _createCorgi(_name);\r\n    }\r\n\r\n    // Getters\r\n    function getCorgis() public view returns(Corgi[] memory) {\r\n        return corgis;\r\n    }\r\n\r\n    function getOwnerCorgis(address _owner) public view returns(Corgi[] memory) {\r\n        Corgi[] memory ownerCorgis = new Corgi[](balanceOf(_owner));\r\n        \r\n        uint256 counter = 0;\r\n        for(uint256 i = 0; i < corgis.length; i++) {\r\n            if (ownerOf(i) == _owner) {\r\n                ownerCorgis[counter++] =  corgis[i];\r\n            }\r\n        }\r\n\r\n        return ownerCorgis;\r\n    }\r\n\r\n    // Interaction\r\n    function levelUp(uint256 _id) public payable {\r\n        require(ownerOf(_id) == msg.sender);\r\n        require(msg.value >= lvlUpFee);\r\n        Corgi storage corgi = corgis[_id];\r\n        corgi.level++;\r\n    }\r\n\r\n    function setName(uint256 _id, string memory _name) public payable {\r\n        require(ownerOf(_id) == msg.sender);\r\n        require(msg.value >= changeNameFee);\r\n        Corgi storage corgi = corgis[_id];\r\n        corgi.name = _name;\r\n    }\r\n\r\n    function feed(uint256 _id) public payable {\r\n        require(ownerOf(_id) == msg.sender);\r\n        require(msg.value >= feedFee);\r\n        Corgi storage corgi = corgis[_id];\r\n        corgi.lastMeal = block.timestamp;\r\n    }\r\n\r\n    function transferTo(uint256 _id, address _to) public {\r\n        require(ownerOf(_id) == msg.sender);\r\n        require(msg.sender != _to);\r\n        transferFrom(msg.sender, _to, _id);\r\n        emit Transfered(msg.sender);\r\n    }\r\n\r\n    // Market\r\n    function sell(uint256 _id, uint256 _price) public {\r\n        Corgi storage corgi = corgis[_id];\r\n        corgi.price = _price;\r\n        corgi.onMarket = true;\r\n    }\r\n\r\n    function buy(uint256 _id) public payable {\r\n        Corgi storage corgi = corgis[_id];\r\n        require(msg.value >= corgi.price);\r\n        payable(ownerOf(_id)).transfer(msg.value);\r\n\r\n        corgi.price = 0;\r\n        corgi.onMarket = false;\r\n\r\n        transferFrom(ownerOf(_id), msg.sender, _id);\r\n    }\r\n\r\n    function cancelOnMarket(uint256 _id) public {\r\n        Corgi storage corgi = corgis[_id];\r\n        corgi.price = 0;\r\n        corgi.onMarket = false;\r\n    }\r\n\r\n    // Rank\r\n    function setRank(address _owner, int256 _rank) public payable{\r\n        ranks[_owner] += _rank;\r\n        if(ranks[_owner] < 0)\r\n            ranks[_owner] = 0;\r\n         if (_rank > 0 ) {\r\n            payable(_owner).transfer(msg.value * 2);\r\n        }\r\n    } \r\n\r\n    function getRank(address _owner) public view returns(int256) {\r\n        return ranks[_owner];\r\n    } \r\n}\r\n",
  "sourcePath": "D:\\University__\\Thesis\\corgi-nft-game\\contracts\\CorgiToken.sol",
  "compiler": {
    "name": "solc",
    "version": "0.8.11+commit.d7f03943.Emscripten.clang"
  },
  "schemaVersion": "3.4.5",
  "updatedAt": "2022-06-16T11:56:48.316Z",
  "networkType": "ethereum",
  "devdoc": {
    "kind": "dev",
    "methods": {
      "approve(address,uint256)": {
        "details": "See {IERC721-approve}."
      },
      "balanceOf(address)": {
        "details": "See {IERC721-balanceOf}."
      },
      "getApproved(uint256)": {
        "details": "See {IERC721-getApproved}."
      },
      "isApprovedForAll(address,address)": {
        "details": "See {IERC721-isApprovedForAll}."
      },
      "name()": {
        "details": "See {IERC721Metadata-name}."
      },
      "owner()": {
        "details": "Returns the address of the current owner."
      },
      "ownerOf(uint256)": {
        "details": "See {IERC721-ownerOf}."
      },
      "renounceOwnership()": {
        "details": "Leaves the contract without owner. It will not be possible to call `onlyOwner` functions anymore. Can only be called by the current owner. NOTE: Renouncing ownership will leave the contract without an owner, thereby removing any functionality that is only available to the owner."
      },
      "safeTransferFrom(address,address,uint256)": {
        "details": "See {IERC721-safeTransferFrom}."
      },
      "safeTransferFrom(address,address,uint256,bytes)": {
        "details": "See {IERC721-safeTransferFrom}."
      },
      "setApprovalForAll(address,bool)": {
        "details": "See {IERC721-setApprovalForAll}."
      },
      "supportsInterface(bytes4)": {
        "details": "See {IERC165-supportsInterface}."
      },
      "symbol()": {
        "details": "See {IERC721Metadata-symbol}."
      },
      "tokenURI(uint256)": {
        "details": "See {IERC721Metadata-tokenURI}."
      },
      "transferFrom(address,address,uint256)": {
        "details": "See {IERC721-transferFrom}."
      },
      "transferOwnership(address)": {
        "details": "Transfers ownership of the contract to a new account (`newOwner`). Can only be called by the current owner."
      }
    },
    "version": 1
  },
  "userdoc": {
    "kind": "user",
    "methods": {},
    "version": 1
  }
}